:020000040802f0
:100000000000022039020208000000000000000089
:1000100000000000000000000000000000000000e0
:1000200000000000000000000000000000000000d0
:1000300000000000000000000000000000000000c0
:1000400000000000000000000000000000000000b0
:1000500000000000000000000000000000000000a0
:100060000000000000000000000000000000000090
:100070000000000000000000000000000000000080
:100080000000000000000000000000000000000070
:100090000000000000000000000000000000000060
:1000a0000000000000000000000000000000000050
:1000b0000000000000000000000000000000000040
:1000c0000000000000000000000000000000000030
:1000d0000000000000000000000000000000000020
:1000e0000000000000000000000000000000000010
:1000f0000000000000000000000000000000000000
:1001000000000000000000000000000000000000ef
:1001100000000000000000000000000000000000df
:1001200000000000000000000000000000000000cf
:1001300000000000000000000000000000000000bf
:1001400000000000000000000000000000000000af
:10015000000000000000000000000000000000009f
:10016000000000000000000000000000000000008f
:10017000000000000000000000000000000000007f
:10018000000000000000020834a8050800001f0c51
:10019000060004010402cf0000000000e04f030845
:1001a0005453030844530308545203085850030897
:1001b00070b50025054e064ca41ba408ac4200d126
:1001c00070bd56f8043b98470135f7e7f4a50508dc
:1001d000f8a50508014b1860704700bf34440120a2
:1001e0000048704798a2050808b5024b1b685b6a77
:1001f000019308bda001060809480a4908b58842cc
:1002000005d0094a824202d0121a0ef0c2fb0748fa
:10021000074a0021121a0ef0cafb064808bd00bfab
:100220000044012008a605080446012004460120d8
:10023000fd46012000440120fff7deff014b1b6853
:10024000184700bf0400060808b5024b1b68db68ae
:10025000019308bd9c010608407803280dd8431e71
:10026000022b14d8dfe803f014141400052b09d86e
:10027000dfe803f00e0e0e0e0e0ea0f14003dab210
:10028000052af3d910f0800f08bf802070470020a6
:10029000704702680146107800f00f000c2802d861
:1002a00001320a6070470d2806d1531c0b60537849
:1002b000023203f10d00f4e70e2807d1b2f8013045
:1002c00003325bba9bb203f20d10eae700207047dd
:1002d000f0b51e4b8bb002ad04460f469c462a4635
:1002e00003f1180e2e4618685968083303c6734583
:1002f0003546f7d118681b7930603371144bdcf840
:100300001d001b7900908df804301346224608ae7c
:100310001d4603cdb542106051602b4602f1080224
:10032000f6d1286807f10b0110602b7904f11d004c
:10033000137180220ef02dfb00989df80430c4f854
:100340009d0084f8a1300bb0f0bd00bf5f1803081a
:100350007c18030838b514463ab10c2ad3b206d833
:1003600000f8013b0ef015fb0134204638bd0d2589
:100370000d3b0570437002300ef00bfb0234f4e7c6
:1003800023289abf024b33f910006ff0ef0070473b
:10039000a0180308704710b404686468a44610bc31
:1003a000604790f88406003818bf012070474ff06e
:1003b000ff30704781817047c18170470b88032be4
:1003c00081bf83894b80c3898b807047072933d8cd
:1003d000dfe801f004111a2126292c2fd0f89416f9
:1003e0005b68012901d1022b03d0c0f88c26c0f82c
:1003f000943600207047003a18bf0122012380f88c
:10040000b92080f8b830f4e7d0f8803643f008031c
:10041000c0f88036ede7d0f8803643f01003f7e7f8
:10042000a0f8bc26e5e7c0f8b426e2e7c0f8b82695
:10043000dfe7c0f8c026dce71b20704710b5a1f14c
:100440000804022c21d81c68032c02d80420186050
:1004500010bd09290ed00a2914d0d0f8c01640f2d8
:10046000ae304c1e84420dd8503911600422002059
:100470001a60ede7d0f8c016481eb0f5597f01d8d4
:100480000639f2e74ff45871efe71b20e0e710b4ac
:100490000468a468a44610bc604790f860067047e2
:1004a00010b5d0f85836d0f85c46d0f8500601b1f7
:1004b0000b600ab1c2e9003410bd0368db6818475d
:1004c00003681b69184740f2ae339a429fbf06305b
:1004d0004ff0ff32c1e90003002096bfca6004203c
:1004e00088607047002070470020704770470022e6
:1004f000c0e90022c0e90222c0e9042282618283ad
:100500007047123310b5d1e90140241a9c4221bf33
:100510000b6848601230c01825bfc2e900040020f3
:100520000420906010bd10b592b14368002b0fdd20
:1005300003682bb15c1c046011b111f8014b1c70f5
:100540004368013a013b4360836801338360ebe712
:1005500010bd2de9f04106460f46144622f0030572
:100560004fea92080d44af420cd16ff0030202fb38
:1005700008442c44a5420bd0d6e90030984705f832
:10058000010bf7e7d6e90030984747f8040beae794
:100590000020bde8f081002070472de9f843d0f835
:1005a000ac3881460f46154698470024064644f667
:1005b0002068ac4212dad9f8b4380022291b381965
:1005c0009847031e0ddb01d01c44f2e7d9f8ac3884
:1005d0009847801b4045ecd94ff0ff342046bde8da
:1005e000f8831c46fae72de9f843d0f8ac38814689
:1005f0000f46154698470024064644f62068ac424c
:1006000012dad9f8b8380022291b38199847031e86
:100610000ddb01d01c44f2e7d9f8ac389847801bb9
:100620004045ecd94ff0ff342046bde8f8831c4626
:10063000fae74ff0b10cf0b50b68d0f8b4468789f3
:10064000c689b0f8bc56d0f8b80683f804c04ff09d
:10065000680c83f805c04ff0ff0c1f7283f806c0ca
:100660009e724fea172c1a73370a160a0622502177
:100670009a732a0a5a74032219700221da74c0226a
:10068000597000211a75220e5a75220c9a75220a89
:10069000da75c0f307229970d97083f807c05f72ca
:1006a000de725973d97319749d741c765a769876d4
:1006b0001b20f0bd70b50b68056804466b4013ea5b
:1006c000020041d1d30605d5ee0603d5268b0b8b50
:1006d0009e4238d1500705d56b0703d5e068cb683b
:1006e000984231d1960705d5a80703d5a0688b6835
:1006f000984229d1d30705d5ee0703d560684b682a
:10070000984221d1100705d52b0703d520690b6925
:10071000984219d1960605d5a80603d5608b4b8b58
:10072000984211d1530605d56e0603d560694b6911
:10073000984209d1100609d52a0607d5a08b8b8bc4
:10074000c31a5842584170bd0020fce70120fae767
:1007500003681b68184738b51546d0e90223934251
:10076000044607d2d21a4068aa4228bf2a46184433
:100770000ef00ff9e26801202a44e26038bd7fb52f
:10078000044600f504760d460020236c8bb10d2144
:10079000009004f14900a847402101902046a84755
:1007a0000121029004f14800a847102103906846f7
:1007b000a8475834b442e8d104b070bd10b46024e6
:1007c0000b681c7000245c709c70dc704b68ca6005
:1007d000032b84bf04238b60406810bc03685b68f4
:1007e000184770b51c4605460e4611461a460ef0cf
:1007f000d0f8321b28190021bde870400ef0d7b8a0
:100800000a460b8884300821fff7ebbf2de9f0473b
:100810000f6c05468a46144657b9c0e90077c0e90f
:100820000277c0e90477876187832846bde8f087af
:1008300012f0100616bf1026b146b1f8bc9612f0a1
:10084000010807d0002301211a460846b847804610
:1008500046f0010614f0020709d00023daf84070d0
:100860001a4601211846b847074646f0020614f01a
:10087000040007d0daf864100af58660fff77ffffe
:1008800046f0040614f008011cbf46f00806daf82a
:10089000801614f020031cbf4ff4707346f020063e
:1008a00014f040021cbf46f04006daf8b42614f0fb
:1008b00080041cbfbaf8b84646f08006c5e9006857
:1008c000c5e90270c5e90412a5f818906b83ac83e2
:1008d000abe710b40446084611466268d4681a466d
:1008e000234610bc184710b40446084611466268f7
:1008f00014691a46234610bc184710b4044608462b
:100900001146626854691a46234610bc18470346cc
:100910005b6808469b691146184743681b6a18477d
:100920000346084621b1db680b44013bb3fbf1f001
:100930007047006800ba704770b50a460446418c9b
:100940000830fff7edff012683b2104698420bd224
:10095000656ac108695c00f0070206fa02f21142fa
:1009600004d0013080b2f1e74ff6ff7070bd10b4d3
:1009700001291346c06807d102685968146803f159
:100980000802234610bc18476ff0770010bc704770
:1009900038b5144619b904220846226038bd1368d8
:1009a000032b07d903685b6898470028f6d1042316
:1009b0002360f3e76ff0bd00f0e7836900200b6070
:1009c000704710b460240b681c7000245c709c702d
:1009d000dc704b68ca60032b84bf04238b60036800
:1009e00010bc586803685b68184770b40c689df8c1
:1009f0000c506126657000252670a570e570227187
:100a00004a68cb60042a88bf052270bc88bf8a6010
:100a10000368586803685b681847000008b5024b14
:100a20001b681b6e019308bdb801060808b5024b90
:100a30001b689b6e019308bdb801060808b5024b00
:100a40001b685b68019308bd9c010608f8b50e465b
:100a5000144622f0030597080d44ae420bd16ff007
:100a6000030202fb07442c44a54209d0fff7e6ff2e
:100a700005f8010bf8e7fff7e1ff46f8040bece798
:100a80000020f8bd2de9f74f4ff001081746044646
:100a90001d460e464246c0f8808600f5d66100200d
:100aa000fff7d4ffd5e901a9bb6879684ff4197243
:100ab00004f53b60d5f820b001930df06aff019b6f
:100ac0004ff49472194604f688200df062ff3368e3
:100ad0002a46c4f8143e73683821c4f8183eb36837
:100ae000c4f870bfc4f81c3e194bc4f878afc4f802
:100af000743f04f68473c4f8803f0023c4f87c9fdd
:100b0000c4f88430c4f8883004f14c0630462b8891
:100b1000fff767fe0c9b3c211b680c9a04f1100048
:100b2000fff75ffe04f1c003c4f8b43043f6982326
:100b3000c4f88c3642f21073c4f890360223c4f81d
:100b4000c46084f88486c4f8943603b0bde8f08f9e
:100b50009503020808b5024b1b685b69019308bd49
:100b60009c0106084ff40052024b08b11a837047eb
:100b70005a83704700000240014b1860704700bf65
:100b800078460120014b1870704700bf2e440120a9
:100b900010b5054b1c78054b4443db680020984793
:100ba0006043000c10bd00bf2e4401200044012012
:100bb00038b50546c0f307400c46fff7e9ff208033
:100bc000c5f30720fff7e4ff6080e8b2fff7e0ff1e
:100bd000a08038bd014b1860704700bf7c460120e3
:100be00010b9024b18687047014bfbe778460120ab
:100bf0007c460120014b1878704700bf2e4401202d
:100c0000024b1860024b1960704700bf80460120fc
:100c10008446012010b5054b0446db680020984748
:100c20002402b4fbf0f0c0b210bd00bf00440120ac
:100c3000f7b5104b104f5d68828800234188044649
:100c40000088a8473b689bb12088fff7e3ff054673
:100c50006088fff7dfff0646a088fff7dbff002272
:100c6000034606480092294632463c680068a04781
:100c700003b0f0bd004401208046012084460120dd
:100c800007b56946fff794ff6846fff7d1ff03b049
:100c90005df804fb13b518b1e72807d002b010bd0a
:100ca000104b5b6902b0bde8104018470e4b1b7833
:100cb000a3b10e4b1c680b4b00219b6868469847fc
:100cc000bdf80220bdf800301343bdf804201343e3
:100cd0009bb22bb10020fff7d3ffdfe7044be9e71e
:100ce0002046f8e700440120044601207c4601200c
:100cf0007846012013b51a4a1a4b147854bb0121c7
:100d000019701b78e7281c44e4b2147020d1164bec
:100d10001b781bb3154b18686946fff749ff632220
:100d2000bdf8003068466343b3fbf2f3adf8003022
:100d3000bdf802306343b3fbf2f3adf80230bdf807
:100d400004305c43b4fbf2f4adf80440fff770ffed
:100d500002b010bd632cd4d1ff21d1e7044bdae7f8
:100d60002d4401202c440120044601207c46012012
:100d7000784601202de9f341dff834800446002154
:100d80006846d8f8083098476e46671e023400203f
:100d9000d8f80c3036f8025b98472d02b5fbf0f519
:100da00007f8015fa742f2d102b0bde8f08100bfb1
:100db00000440120024b1878003818bf012070470a
:100dc0000446012084b030b503ac84e80f00064c23
:100dd00003ad0fcd0fc495e8030084e80300bde820
:100de000304004b0704700bf0044012008b5084bf4
:100df0001b7853b1074b1868fff742ff6322064b7d
:100e00001a70ff22054b1a7008bd054bf3e700bfaf
:100e1000044601207c4601202d4401202c44012061
:100e20007846012010b1e72805d070474ff40052f2
:100e3000024b1a837047fff7d9bf00bf0000024082
:100e400008b50020fff71cff0022034b1a70012297
:100e5000024b1a7008bd00bf2d4401202c44012014
:100e600010b1e72805d070474ff40052024b5a8367
:100e70007047fff7e5bf00bf0000024030b50346f2
:100e800085b088b1029200226c4608480392cde9f1
:100e9000000104ad224603caaa42186059601446f4
:100ea00003f10803f6d1012005b030bdb10e0208f0
:100eb00010b54468a31843600023934201d1012078
:100ec00010bdc85ce0540133f7e700001fb50346ce
:100ed00040b1054801accde9010103cc1860012007
:100ee00059609a6004b010bded0e020810b5446858
:100ef000a318436039b9012010bde05cc854013328
:100f00009342fad1f7e70023fae70000002908bf6f
:100f10003221024b1970024b186070472f44012098
:100f20008846012070470cb402b07047704700003b
:100f30002de9f04f00244ff0010c4ff0ff3627460b
:100f4000d0f804e0964504d211f80e80b8f1000ff5
:100f500009d18268511e03eb0213002980f2b2818d
:100f600060b2bde8f08fb8f13a0f7ed033d8b8f157
:100f7000220f00f0aa8010d8a8f109085ffa88f8bb
:100f8000b8f1170f0dd8b14d0cfa08f818ea050f93
:100f900007d0456801354560d2e7b8f12c0f00f065
:100fa0003181d0f8048042450ed911f808505db166
:100fb0003a2d00f268811f2d00f24f810a2d00f2b8
:100fc0005f81082d40f25581002b40f0618108f1ce
:100fd000ff354560a9e0b8f17b0f1dd00ad8b8f104
:100fe0005b0f19d0b8f15d0fdbd1002bd1d04ff0e2
:100ff000020906e0b8f17d0fd3d1002bc9d04ff024
:1010000001098568013d03eb0518002d30da013533
:10101000bfd16ff00100a4e70134002bb9d085687f
:10102000ddf824e0ae456ad905f1010ec0f808e00c
:1010300003eb051ecee90166cef80c704fea051ae7
:10104000c568b5f1ff3f1fbf03eb0519d9f80c5078
:101050000135c9f80c50b8f17b0f0cbf01250225f2
:1010600003f80a504568cef804508568013d1fe03a
:10107000d8f804a0baf1ff3f1cd0d8f808a0baf104
:10108000ff3f17d198f800b0cb45c2d10ef1010e49
:10109000c0f80ca0c8f808e003eb051edef80480d9
:1010a000b8f1ff3f0ad0def80880b8f1ff3f05d164
:1010b000c5606ee7013da8f11008a6e7013db5f156
:1010c000ff3faef1100ee9d163e70ef10109c0f860
:1010d0000490d0f80480424502d911f8085025b98f
:1010e000c0f804e06ff002003be7222d2ed1e3b1ff
:1010f0008568ddf82480a84504d8c0f804e04ff0e6
:10110000ff302ee74ff0030a05f1010e4fea0518f4
:1011100003eb0515c0f808e0c5e90166ef60d0f8fb
:1011200004e003f808a0c5e9019ec5680134b5f1e3
:10113000ff3f3ff42eaf002b3ff42baf03eb051e18
:10114000def80c500135cef80c5022e75c2d11d1a1
:1011500008f1010595420dd245604d5d752d2ed8e3
:101160006d2d0bd8662d2ad85b2d1fd8222d01d0ce
:101170002f2d24d1456801354560aae76e3d072d26
:101180001dd80ff2080a5af825f000bf75110208a1
:10119000bf110208bf110208bf1102087511020831
:1011a000bf11020875110208c511020840f241483a
:1011b0005c3dedb20cfa05f515ea080fdad1c0f87e
:1011c00004e026e74ff0040a08f102054560d0f874
:1011d0000480424512d911f808507db1a5f1300bb9
:1011e000bbf1090f04d925f02005413d052de6d8b6
:1011f00008f10105baf1010a4560e8d14568013df1
:101200004560b7e7002b3ff4c4aec5682d015d5db6
:10121000013d012d7ff6bdae856805f1ff3803eb7a
:10122000051eb8f1000ffff6b4ae1ef8105c013dcc
:10123000012d0dd85ef80c5c013509d05ef8085c14
:10124000013505d1c0f80c80a3e600bf1300800073
:1012500008f1ff38aef1100ee3e7a5f12009dff841
:101260007ca05ffa89f90cfa09f919ea0a0f7ff4f0
:10127000abae203d5e2da2d808f10105456090e699
:101280000d2df6d1a0e605f0df09b9f15d0ff8e705
:101290008568ddf82480a8457ff62faf05f10108a9
:1012a0004fea051903eb0515c0f80880c5e901668a
:1012b000ef60d0f8048003f80970c5e901e84568db
:1012c000013d86e653f80c2c013204d053f8082c6b
:1012d00001323ff407af0139103b3ee60110000434
:1012e0000023c0e901334ff0ff33c36070470fb4f0
:1012f00004b0704770470000034a044b32ea2000f4
:1013000028bf1846704700bf861d0308c811030890
:10131000034a044b32ea200028bf1846704700bf3a
:10132000861d0308c8110308034b1860034b19609e
:10133000034b1a60704700bf344601203846012035
:101340003c460120f0b5164b05461e680f46144674
:10135000abb036b9134b1b6803b3134b1b788342f6
:101360001cdc23791b0706d4fff7f4fb23796061ab
:1013700043f0080323718eb1dde93023a02102a8d8
:10138000fef732ff9f28c4bf7e238df8a6300023ce
:101390003a4600932946234602a8b0472bb0f0bd39
:1013a00034460120884601202f44012070b51a469a
:1013b000134b04461d680e46aab035b9114b1b6885
:1013c000bbb1114b1b78834213dc2e9ba02102a8da
:1013d000fef70aff9f28c8bf7e230146c4bf8df8d1
:1013e000a6309f213db100232246009302a8334638
:1013f000a8472ab070bd034b02a81b689847f8e7be
:00000001FF
