:020000040000fa
:080000000002040000000000f2
:020000040000fa
:04000800520300009f
:020000040000fa
:04000c00520300009b
:020000040000fa
:040010005203000097
:020000040000fa
:040014005203000093
:020000040000fa
:04001800520300008f
:020000040000fa
:04001c00520300008b
:020000040000fa
:040020005203000087
:020000040000fa
:040024005203000083
:020000040000fa
:04002800520300007f
:020000040000fa
:04002c00520300007b
:020000040000fa
:040030005203000077
:020000040000fa
:040034005203000073
:020000040000fa
:04003800520300006f
:020000040000fa
:04003c00520300006b
:020000040000fa
:040040005203000067
:020000040000fa
:040044005203000063
:020000040000fa
:04004800520300005f
:020000040000fa
:04004c00520300005b
:020000040000fa
:040050005203000057
:020000040000fa
:04005400c8020000de
:020000040000fa
:04005800520300004f
:020000040000fa
:04005c00520300004b
:020000040000fa
:040060005203000047
:020000040000fa
:040064005203000043
:020000040000fa
:04006800520300003f
:020000040000fa
:04006c00520300003b
:020000040000fa
:040070005203000037
:020000040000fa
:040074005203000033
:020000040000fa
:04007800520300002f
:020000040000fa
:04007c00520300002b
:020000040000fa
:040080005203000027
:020000040000fa
:040084005203000023
:020000040000fa
:04008800520300001f
:020000040000fa
:04008c00520300001b
:020000040000fa
:040090005203000017
:020000040000fa
:040094005203000013
:020000040000fa
:04009800520300000f
:020000040000fa
:04009c00520300000b
:020000040000fa
:0400a0005203000007
:020000040000fa
:0400a4005203000003
:020000040000fa
:0400a80052030000ff
:020000040000fa
:0400ac0052030000fb
:020000040000fa
:0400b00052030000f7
:020000040000fa
:0400b40052030000f3
:020000040000fa
:0400b80052030000ef
:020000040000fa
:0400bc0052030000eb
:020000040000fa
:0400c00052030000e7
:020000040000fa
:0400c40052030000e3
:020000040000fa
:0400c80052030000df
:020000040000fa
:0400cc0052030000db
:020000040000fa
:0400d00052030000d7
:020000040000fa
:0400d40052030000d3
:020000040000fa
:0400d80052030000cf
:020000040000fa
:0400dc0052030000cb
:020000040000fa
:0400e00052030000c7
:020000040000fa
:0400e40052030000c3
:020000040000fa
:0400e80052030000bf
:020000040000fa
:0400ec0052030000bb
:020000040000fa
:0400f00052030000b7
:020000040000fa
:0400f40052030000b3
:020000040000fa
:0400f80052030000af
:020000040000fa
:0400fc0052030000ab
:020000040000fa
:0401000052030000a6
:020000040000fa
:0401040052030000a2
:020000040000fa
:04010800520300009e
:020000040000fa
:04010c00520300009a
:020000040000fa
:040110005203000096
:020000040000fa
:040114005203000092
:020000040000fa
:04011800520300008e
:020000040000fa
:04011c00520300008a
:020000040000fa
:040120005203000086
:020000040000fa
:040124005203000082
:020000040000fa
:04012800520300007e
:020000040000fa
:04012c00520300007a
:020000040000fa
:040130005203000076
:020000040000fa
:040134005203000072
:020000040000fa
:04013800520300006e
:020000040000fa
:04013c00520300006a
:020000040000fa
:040140005203000066
:020000040000fa
:040144005203000062
:020000040000fa
:04014800520300005e
:020000040000fa
:04014c00520300005a
:020000040000fa
:040150005203000056
:020000040000fa
:04020800520300009d
:020000040000fa
:04020c005203000099
:020000040000fa
:040210005203000095
:020000040000fa
:040214005203000091
:020000040000fa
:04021800520300008d
:020000040000fa
:04021c005203000089
:020000040000fa
:040220005203000085
:020000040000fa
:040224005203000081
:020000040000fa
:04022800520300007d
:020000040000fa
:04022c005203000079
:020000040000fa
:040230005203000075
:020000040000fa
:040234005203000071
:020000040000fa
:04023800520300006d
:020000040000fa
:04023c005203000069
:020000040000fa
:040240005203000065
:020000040000fa
:040244005203000061
:020000040000fa
:04024800520300005d
:020000040000fa
:04024c005203000059
:020000040000fa
:040250005203000055
:020000040000fa
:040254005203000051
:020000040000fa
:04025800520300004d
:020000040000fa
:04025c005203000049
:020000040000fa
:040260005203000045
:020000040000fa
:040264005203000041
:020000040000fa
:04026800520300003d
:020000040000fa
:04026c005203000039
:020000040000fa
:040270005203000035
:020000040000fa
:040274005203000031
:020000040000fa
:04027800520300002d
:020000040000fa
:04027c005203000029
:020000040000fa
:040280005203000025
:020000040000fa
:040284005203000021
:020000040000fa
:04028800520300001d
:020000040000fa
:04028c005203000019
:020000040000fa
:040290005203000015
:020000040000fa
:040294005203000011
:020000040000fa
:04029800520300000d
:020000040000fa
:04029c005203000009
:020000040000fa
:0402a0005203000005
:020000040000fa
:0402a4005203000001
:020000040000fa
:0402a80052030000fd
:020000040000fa
:0402ac0052030000f9
:020000040000fa
:0402b00052030000f5
:020000040000fa
:0402b40052030000f1
:020000040000fa
:0402b80052030000ed
:020000040000fa
:0402bc0052030000e9
:020000040000fa
:0402c00052030000e5
:020000040000fa
:0402c40052030000e1
:020000040000fa
:0402c80052030000dd
:020000040000fa
:0402cc0052030000d9
:020000040000fa
:0402d00052030000d5
:020000040000fa
:0402d40052030000d1
:020000040000fa
:0402d80052030000cd
:020000040000fa
:0402dc0052030000c9
:020000040000fa
:0402e00052030000c5
:020000040000fa
:0402e40052030000c1
:020000040000fa
:0402e80052030000bd
:020000040000fa
:0402ec0052030000b9
:020000040000fa
:0402f00052030000b5
:020000040000fa
:0402f40052030000b1
:020000040000fa
:0402f80052030000ad
:020000040000fa
:0402fc0052030000a9
:020000040000fa
:0403000052030000a4
:020000040000fa
:0403040052030000a0
:020000040000fa
:04030800520300009c
:020000040000fa
:04030c005203000098
:020000040000fa
:040310005203000094
:020000040000fa
:040314005203000090
:020000040000fa
:04031800520300008c
:020000040000fa
:04031c005203000088
:020000040000fa
:040320005203000084
:020000040000fa
:040324005203000080
:020000040000fa
:04032800520300007c
:020000040000fa
:04032c005203000078
:020000040000fa
:040330005203000074
:020000040000fa
:040334005203000070
:020000040000fa
:04033800520300006c
:020000040000fa
:04033c005203000068
:020000040000fa
:040340005203000064
:020000040000fa
:040344005203000060
:020000040000fa
:04034800520300005c
:020000040000fa
:04034c005203000058
:020000040000fa
:040350005203000054
:020000040000fa
:100400006f8420000eff20000e0188000000000015
:10041000000020000000e000020032000001200087
:100420002002880014000700f40007000000e0002c
:1004300003003a00e04b20000100200002003700da
:100440000000200001002000810f70000100320038
:1004500014000700000020000000e000020032004d
:100460000000020000000000240402000000000060
:100470000040da000000fe004440a90060012000b6
:100480000000e0000300320000002000a00188000e
:100490004440a800000006008a1f78008b1f7800e7
:1004a0000000060091018800800478000000eb0045
:1004b0001a003700e284440032a0b4009905ba0063
:1004c000e284440032a0b4009906ba00e2844400f9
:1004d00032a0b4000006eb00476fde00fd07b2005b
:1004e000636ce10003003a00ebff07000000eb0043
:1004f0000a003700606ce10004003a00005deb0088
:100500008b05e900fdff3e00040037006168e10053
:10051000010032000086eb000b00070019c7ba008b
:100520001905ba000e04e00003003a000a00e000da
:10053000e0ff3a0000000600fe07b2009e018800be
:100540008a047800f5ff3700395dba008b05e900b1
:100550000c003200295dba008b05e900080032006a
:100560000c00e00003003a00e284440032a0b40032
:10057000f5ff370019ddba008b05e900faff3a00f4
:100580008904e800e184440032a0b40000000600c1
:100590003600f800809fbe00829fbe00849fbe0090
:1005a000869fbe00881f78003400f80000002000fd
:1005b000a00188000000fa002d00370008428000ea
:1005c0007e000700080144000180200081004100f6
:1005d00080087800004280000000e80000428800a7
:1005e00000428000ff0f500008003e0000428000e3
:1005f0000000e900800040000080200000804000f2
:1006000010007800ed0f500019003a004228ef006a
:100610000d00370000000000240007000004e00087
:10062000fdff3a0010428000800040000080200062
:100630000080400010007800690007001042800030
:100640000000e8001042880010428000800078001e
:1006500000428000808f5000eeff3900020220002f
:100660008000eb0000802000650007004028ef00bc
:10067000370007000004e000d0ff3a008560a900c1
:100680000080fa003400f9004f0478004f03be00e8
:100690004f02be004f01be004f00be003600f90001
:1006a000004006000040da000000fe0000102000bc
:1006b0002202b6000000e9004f00de000000060044
:1006c0008560a900e70060008580a900cc08dd00f6
:1006d00000017800f3ff28000207b2004405800003
:1006e000848161004411de0083817000e8006000b5
:1006f00043058800c308de0083ff2f00e18060000f
:100700005405800084816100cb08dd008301710005
:100710000008b20053058800f27f2f004700de007a
:10072000a304800003016100610060000281700089
:100730004c00dd00a2048800f1ff2e00a40480001c
:100740008480600081007000a10488000000060021
:100750001011800061406000000006004211880016
:1007600000118800111188000000060001118000ae
:10077000e6806000e68f50000c003a00030037006e
:100780002322ab00feff3a0021118800b000780060
:100790000100e000faff3a00000006002322ab004f
:1007a000feff3a008100fb0021118800b040780074
:1007b0000104e000f9ff3a0000000600001180008b
:1007c00066006000e60f500002003a003011800021
:1007d0000000060030118000f00fb200000006009b
:1007e00001118000e6806000e68f500001003200b9
:1007f000f00fb20020118800000006000000050084
:100800008001780002003700815978000201e90078
:0c0810000200e000fcff3a0000000600bf
:020000040000fa
:10081c00536900006e670000756c00006172000087
:10082c00204500006e670000696e000065650000e1
:0c083c00722000000d0a00000000000007
:020000040000fa
:100848000000fa0038000700160007000300070040
:1008580020428000c3ff0700ffff37000400fa00b2
:100868000000eb00000f78000000eb001007980074
:1008780000c02c00000f7800d0752b0010079800de
:10088800a0f02f008cff07008560a900420120001e
:100898009e0090001e007800aeff07000080fa005e
:1008a800000006000000fa00c882a900c8a2a8003b
:1008b800113a8000f00b20000081600060042000e5
:1008c8007105200023742000804978008149780050
:1008d800824978002135800000fe2f0000806000ea
:1008e8005000b300203588002136800000fe2f001c
:1008f800008060003000b30020368800103a800085
:10090800000178000260a00060042000710520004a
:100918002374200080497800814978008249780052
:100928000080fa00000006000000fa00213a80006a
:1009380000fe2f0000806000203a8800900220000e
:10094800303a8800213a8000f0f32f0000806000e0
:10095800203a880000000000113a800000022000c0
:10096800008060000000e000fbff32000080fa0019
:040978000000060075
:020000040000fa
:10097c004408000002000000020000000e84000089
:10098c00000800004400000000000000000000000f
:020000040000fa
:0200000401f009
:04000c00f9ff0000f8
:020000040000fa
:0200000401f009
:04001000fbff0000f2
:020000040000fa
:0200000401f009
:040014007fff00006a
:020000040000fa
:0200000401f009
:04001c00dfff000002
:00000001FF
